{
    "contractName": "StarNotary",
    "abi": [
        {
            "inputs": [
                {
                    "internalType": "string",
                    "name": "name",
                    "type": "string"
                },
                {
                    "internalType": "string",
                    "name": "symbol",
                    "type": "string"
                }
            ],
            "stateMutability": "nonpayable",
            "type": "constructor"
        },
        {
            "anonymous": false,
            "inputs": [
                {
                    "indexed": true,
                    "internalType": "address",
                    "name": "owner",
                    "type": "address"
                },
                {
                    "indexed": true,
                    "internalType": "address",
                    "name": "approved",
                    "type": "address"
                },
                {
                    "indexed": true,
                    "internalType": "uint256",
                    "name": "tokenId",
                    "type": "uint256"
                }
            ],
            "name": "Approval",
            "type": "event"
        },
        {
            "anonymous": false,
            "inputs": [
                {
                    "indexed": true,
                    "internalType": "address",
                    "name": "owner",
                    "type": "address"
                },
                {
                    "indexed": true,
                    "internalType": "address",
                    "name": "operator",
                    "type": "address"
                },
                {
                    "indexed": false,
                    "internalType": "bool",
                    "name": "approved",
                    "type": "bool"
                }
            ],
            "name": "ApprovalForAll",
            "type": "event"
        },
        {
            "anonymous": false,
            "inputs": [
                {
                    "indexed": true,
                    "internalType": "address",
                    "name": "from",
                    "type": "address"
                },
                {
                    "indexed": true,
                    "internalType": "address",
                    "name": "to",
                    "type": "address"
                },
                {
                    "indexed": true,
                    "internalType": "uint256",
                    "name": "tokenId",
                    "type": "uint256"
                }
            ],
            "name": "Transfer",
            "type": "event"
        },
        {
            "inputs": [
                {
                    "internalType": "address",
                    "name": "to",
                    "type": "address"
                },
                {
                    "internalType": "uint256",
                    "name": "tokenId",
                    "type": "uint256"
                }
            ],
            "name": "approve",
            "outputs": [],
            "stateMutability": "nonpayable",
            "type": "function"
        },
        {
            "inputs": [
                {
                    "internalType": "address",
                    "name": "owner",
                    "type": "address"
                }
            ],
            "name": "balanceOf",
            "outputs": [
                {
                    "internalType": "uint256",
                    "name": "",
                    "type": "uint256"
                }
            ],
            "stateMutability": "view",
            "type": "function"
        },
        {
            "inputs": [],
            "name": "baseURI",
            "outputs": [
                {
                    "internalType": "string",
                    "name": "",
                    "type": "string"
                }
            ],
            "stateMutability": "view",
            "type": "function"
        },
        {
            "inputs": [
                {
                    "internalType": "uint256",
                    "name": "_tokenId",
                    "type": "uint256"
                }
            ],
            "name": "buyStar",
            "outputs": [],
            "stateMutability": "payable",
            "type": "function"
        },
        {
            "inputs": [
                {
                    "internalType": "string",
                    "name": "_name",
                    "type": "string"
                },
                {
                    "internalType": "uint256",
                    "name": "_tokenId",
                    "type": "uint256"
                }
            ],
            "name": "createStar",
            "outputs": [],
            "stateMutability": "nonpayable",
            "type": "function"
        },
        {
            "inputs": [
                {
                    "internalType": "uint256",
                    "name": "tokenId",
                    "type": "uint256"
                }
            ],
            "name": "getApproved",
            "outputs": [
                {
                    "internalType": "address",
                    "name": "",
                    "type": "address"
                }
            ],
            "stateMutability": "view",
            "type": "function"
        },
        {
            "inputs": [
                {
                    "internalType": "address",
                    "name": "owner",
                    "type": "address"
                },
                {
                    "internalType": "address",
                    "name": "operator",
                    "type": "address"
                }
            ],
            "name": "isApprovedForAll",
            "outputs": [
                {
                    "internalType": "bool",
                    "name": "",
                    "type": "bool"
                }
            ],
            "stateMutability": "view",
            "type": "function"
        },
        {
            "inputs": [],
            "name": "name",
            "outputs": [
                {
                    "internalType": "string",
                    "name": "",
                    "type": "string"
                }
            ],
            "stateMutability": "view",
            "type": "function"
        },
        {
            "inputs": [],
            "name": "owner",
            "outputs": [
                {
                    "internalType": "address",
                    "name": "",
                    "type": "address"
                }
            ],
            "stateMutability": "view",
            "type": "function"
        },
        {
            "inputs": [
                {
                    "internalType": "uint256",
                    "name": "tokenId",
                    "type": "uint256"
                }
            ],
            "name": "ownerOf",
            "outputs": [
                {
                    "internalType": "address",
                    "name": "",
                    "type": "address"
                }
            ],
            "stateMutability": "view",
            "type": "function"
        },
        {
            "inputs": [
                {
                    "internalType": "uint256",
                    "name": "_tokenId",
                    "type": "uint256"
                },
                {
                    "internalType": "uint256",
                    "name": "_price",
                    "type": "uint256"
                }
            ],
            "name": "putStarUpForSale",
            "outputs": [],
            "stateMutability": "nonpayable",
            "type": "function"
        },
        {
            "inputs": [
                {
                    "internalType": "address",
                    "name": "from",
                    "type": "address"
                },
                {
                    "internalType": "address",
                    "name": "to",
                    "type": "address"
                },
                {
                    "internalType": "uint256",
                    "name": "tokenId",
                    "type": "uint256"
                }
            ],
            "name": "safeTransferFrom",
            "outputs": [],
            "stateMutability": "nonpayable",
            "type": "function"
        },
        {
            "inputs": [
                {
                    "internalType": "address",
                    "name": "from",
                    "type": "address"
                },
                {
                    "internalType": "address",
                    "name": "to",
                    "type": "address"
                },
                {
                    "internalType": "uint256",
                    "name": "tokenId",
                    "type": "uint256"
                },
                {
                    "internalType": "bytes",
                    "name": "_data",
                    "type": "bytes"
                }
            ],
            "name": "safeTransferFrom",
            "outputs": [],
            "stateMutability": "nonpayable",
            "type": "function"
        },
        {
            "inputs": [
                {
                    "internalType": "address",
                    "name": "operator",
                    "type": "address"
                },
                {
                    "internalType": "bool",
                    "name": "approved",
                    "type": "bool"
                }
            ],
            "name": "setApprovalForAll",
            "outputs": [],
            "stateMutability": "nonpayable",
            "type": "function"
        },
        {
            "inputs": [
                {
                    "internalType": "uint256",
                    "name": "",
                    "type": "uint256"
                }
            ],
            "name": "starsForSale",
            "outputs": [
                {
                    "internalType": "uint256",
                    "name": "",
                    "type": "uint256"
                }
            ],
            "stateMutability": "view",
            "type": "function"
        },
        {
            "inputs": [
                {
                    "internalType": "bytes4",
                    "name": "interfaceId",
                    "type": "bytes4"
                }
            ],
            "name": "supportsInterface",
            "outputs": [
                {
                    "internalType": "bool",
                    "name": "",
                    "type": "bool"
                }
            ],
            "stateMutability": "view",
            "type": "function"
        },
        {
            "inputs": [],
            "name": "symbol",
            "outputs": [
                {
                    "internalType": "string",
                    "name": "",
                    "type": "string"
                }
            ],
            "stateMutability": "view",
            "type": "function"
        },
        {
            "inputs": [
                {
                    "internalType": "uint256",
                    "name": "index",
                    "type": "uint256"
                }
            ],
            "name": "tokenByIndex",
            "outputs": [
                {
                    "internalType": "uint256",
                    "name": "",
                    "type": "uint256"
                }
            ],
            "stateMutability": "view",
            "type": "function"
        },
        {
            "inputs": [
                {
                    "internalType": "uint256",
                    "name": "",
                    "type": "uint256"
                }
            ],
            "name": "tokenIdToStarInfo",
            "outputs": [
                {
                    "internalType": "string",
                    "name": "name",
                    "type": "string"
                }
            ],
            "stateMutability": "view",
            "type": "function"
        },
        {
            "inputs": [
                {
                    "internalType": "address",
                    "name": "owner",
                    "type": "address"
                },
                {
                    "internalType": "uint256",
                    "name": "index",
                    "type": "uint256"
                }
            ],
            "name": "tokenOfOwnerByIndex",
            "outputs": [
                {
                    "internalType": "uint256",
                    "name": "",
                    "type": "uint256"
                }
            ],
            "stateMutability": "view",
            "type": "function"
        },
        {
            "inputs": [
                {
                    "internalType": "uint256",
                    "name": "tokenId",
                    "type": "uint256"
                }
            ],
            "name": "tokenURI",
            "outputs": [
                {
                    "internalType": "string",
                    "name": "",
                    "type": "string"
                }
            ],
            "stateMutability": "view",
            "type": "function"
        },
        {
            "inputs": [],
            "name": "totalSupply",
            "outputs": [
                {
                    "internalType": "uint256",
                    "name": "",
                    "type": "uint256"
                }
            ],
            "stateMutability": "view",
            "type": "function"
        },
        {
            "inputs": [
                {
                    "internalType": "address",
                    "name": "from",
                    "type": "address"
                },
                {
                    "internalType": "address",
                    "name": "to",
                    "type": "address"
                },
                {
                    "internalType": "uint256",
                    "name": "tokenId",
                    "type": "uint256"
                }
            ],
            "name": "transferFrom",
            "outputs": [],
            "stateMutability": "nonpayable",
            "type": "function"
        }
    ],
    "bytecode": "60806040523480156200001157600080fd5b506040516200246938038062002469833981810160405260408110156200003757600080fd5b81019080805160405193929190846401000000008211156200005857600080fd5b9083019060208201858111156200006e57600080fd5b82516401000000008111828201881017156200008957600080fd5b82525081516020918201929091019080838360005b83811015620000b85781810151838201526020016200009e565b50505050905090810190601f168015620000e65780820380516001836020036101000a031916815260200191505b50604052602001805160405193929190846401000000008211156200010a57600080fd5b9083019060208201858111156200012057600080fd5b82516401000000008111828201881017156200013b57600080fd5b82525081516020918201929091019080838360005b838110156200016a57818101518382015260200162000150565b50505050905090810190601f168015620001985780820380516001836020036101000a031916815260200191505b5060408181018152600c82526b4d79537461724e6f7461727960a01b6020808401919091528151808301909252600382526226a9a760e91b908201529093509150620001ed90506301ffc9a760e01b62000259565b815162000202906006906020850190620002de565b50805162000218906007906020840190620002de565b506200022b6380ac58cd60e01b62000259565b6200023d635b5e139f60e01b62000259565b6200024f63780e9d6360e01b62000259565b505050506200037a565b6001600160e01b03198082161415620002b9576040805162461bcd60e51b815260206004820152601c60248201527f4552433136353a20696e76616c696420696e7465726661636520696400000000604482015290519081900360640190fd5b6001600160e01b0319166000908152602081905260409020805460ff19166001179055565b828054600181600116156101000203166002900490600052602060002090601f016020900481019282601f106200032157805160ff191683800117855562000351565b8280016001018555821562000351579182015b828111156200035157825182559160200191906001019062000334565b506200035f92915062000363565b5090565b5b808211156200035f576000815560010162000364565b6120df806200038a6000396000f3fe6080604052600436106101405760003560e01c806342842e0e116100b657806395d89b411161006f57806395d89b41146104d05780639697c0a1146104e5578063a22cb4651461059a578063b88d4fde146105d5578063c87b56dd146106a8578063e985e9c5146106d257610140565b806342842e0e146103dc5780634f6ccce71461041f5780636352211e146104495780636c0360eb1461047357806370a08231146104885780638da5cb5b146104bb57610140565b806318160ddd1161010857806318160ddd146102d45780631967fd98146102e957806323b872dd146103135780632f1c34ef146103565780632f745c5914610373578063316a4361146103ac57610140565b806301ffc9a7146101455780630564b1301461018d57806306fdde03146101c9578063081812fc14610253578063095ea7b314610299575b600080fd5b34801561015157600080fd5b506101796004803603602081101561016857600080fd5b50356001600160e01b03191661070d565b604080519115158252519081900360200190f35b34801561019957600080fd5b506101b7600480360360208110156101b057600080fd5b5035610730565b60408051918252519081900360200190f35b3480156101d557600080fd5b506101de610742565b6040805160208082528351818301528351919283929083019185019080838360005b83811015610218578181015183820152602001610200565b50505050905090810190601f1680156102455780820380516001836020036101000a031916815260200191505b509250505060405180910390f35b34801561025f57600080fd5b5061027d6004803603602081101561027657600080fd5b50356107d8565b604080516001600160a01b039092168252519081900360200190f35b3480156102a557600080fd5b506102d2600480360360408110156102bc57600080fd5b506001600160a01b03813516906020013561083a565b005b3480156102e057600080fd5b506101b7610915565b3480156102f557600080fd5b506101de6004803603602081101561030c57600080fd5b5035610926565b34801561031f57600080fd5b506102d26004803603606081101561033657600080fd5b506001600160a01b038135811691602081013590911690604001356109c7565b6102d26004803603602081101561036c57600080fd5b5035610a1e565b34801561037f57600080fd5b506101b76004803603604081101561039657600080fd5b506001600160a01b038135169060200135610b7c565b3480156103b857600080fd5b506102d2600480360360408110156103cf57600080fd5b5080359060200135610ba7565b3480156103e857600080fd5b506102d2600480360360608110156103ff57600080fd5b506001600160a01b03813581169160208101359091169060400135610c08565b34801561042b57600080fd5b506101b76004803603602081101561044257600080fd5b5035610c23565b34801561045557600080fd5b5061027d6004803603602081101561046c57600080fd5b5035610c39565b34801561047f57600080fd5b506101de610c61565b34801561049457600080fd5b506101b7600480360360208110156104ab57600080fd5b50356001600160a01b0316610cc2565b3480156104c757600080fd5b5061027d610d2a565b3480156104dc57600080fd5b506101de610d39565b3480156104f157600080fd5b506102d26004803603604081101561050857600080fd5b81019060208101813564010000000081111561052357600080fd5b82018360208201111561053557600080fd5b8035906020019184600183028401116401000000008311171561055757600080fd5b91908080601f0160208091040260200160405190810160405280939291908181526020018383808284376000920191909152509295505091359250610d9a915050565b3480156105a657600080fd5b506102d2600480360360408110156105bd57600080fd5b506001600160a01b0381351690602001351515610de1565b3480156105e157600080fd5b506102d2600480360360808110156105f857600080fd5b6001600160a01b0382358116926020810135909116916040820135919081019060808101606082013564010000000081111561063357600080fd5b82018360208201111561064557600080fd5b8035906020019184600183028401116401000000008311171561066757600080fd5b91908080601f016020809104026020016040519081016040528093929190818152602001838380828437600092019190915250929550610ee6945050505050565b3480156106b457600080fd5b506101de600480360360208110156106cb57600080fd5b5035610f3e565b3480156106de57600080fd5b50610179600480360360408110156106f557600080fd5b506001600160a01b03813581169160200135166111e5565b6001600160e01b0319811660009081526020819052604090205460ff165b919050565b600c6020526000908152604090205481565b60068054604080516020601f60026000196101006001881615020190951694909404938401819004810282018101909252828152606093909290918301828280156107ce5780601f106107a3576101008083540402835291602001916107ce565b820191906000526020600020905b8154815290600101906020018083116107b157829003601f168201915b5050505050905090565b60006107e382611213565b61081e5760405162461bcd60e51b815260040180806020018281038252602c815260200180611fd4602c913960400191505060405180910390fd5b506000908152600460205260409020546001600160a01b031690565b600061084582610c39565b9050806001600160a01b0316836001600160a01b031614156108985760405162461bcd60e51b81526004018080602001828103825260218152602001806120586021913960400191505060405180910390fd5b806001600160a01b03166108aa611220565b6001600160a01b031614806108cb57506108cb816108c6611220565b6111e5565b6109065760405162461bcd60e51b8152600401808060200182810382526038815260200180611f276038913960400191505060405180910390fd5b6109108383611224565b505050565b60006109216002611292565b905090565b600b6020908152600091825260409182902080548351601f600260001961010060018616150201909316929092049182018490048402810184019094528084529092918391908301828280156109bd5780601f10610992576101008083540402835291602001916109bd565b820191906000526020600020905b8154815290600101906020018083116109a057829003601f168201915b5050505050905081565b6109d86109d2611220565b8261129d565b610a135760405162461bcd60e51b81526004018080602001828103825260318152602001806120796031913960400191505060405180910390fd5b610910838383611341565b6000818152600c6020526040902054610a7e576040805162461bcd60e51b815260206004820152601e60248201527f54686520537461722073686f756c6420626520757020666f722073616c650000604482015290519081900360640190fd5b6000818152600c602052604081205490610a9783610c39565b9050813411610aed576040805162461bcd60e51b815260206004820152601d60248201527f596f75206e65656420746f206861766520656e6f756768204574686572000000604482015290519081900360640190fd5b610af88133856109c7565b6000610b038261148d565b6040519091506001600160a01b0382169084156108fc029085906000818181858888f19350505050158015610b3c573d6000803e3d6000fd5b5082341115610b765760405133903485900380156108fc02916000818181858888f19350505050158015610b74573d6000803e3d6000fd5b505b50505050565b6001600160a01b0382166000908152600160205260408120610b9e9083611490565b90505b92915050565b33610bb183610c39565b6001600160a01b031614610bf65760405162461bcd60e51b8152600401808060200182810382526027815260200180611e5c6027913960400191505060405180910390fd5b6000918252600c602052604090912055565b61091083838360405180602001604052806000815250610ee6565b600080610c3160028461149c565b509392505050565b6000610ba182604051806060016040528060298152602001611f8960299139600291906114b8565b60098054604080516020601f60026000196101006001881615020190951694909404938401819004810282018101909252828152606093909290918301828280156107ce5780601f106107a3576101008083540402835291602001916107ce565b60006001600160a01b038216610d095760405162461bcd60e51b815260040180806020018281038252602a815260200180611f5f602a913960400191505060405180910390fd5b6001600160a01b0382166000908152600160205260409020610ba190611292565b600a546001600160a01b031681565b60078054604080516020601f60026000196101006001881615020190951694909404938401819004810282018101909252828152606093909290918301828280156107ce5780601f106107a3576101008083540402835291602001916107ce565b610da2611db5565b5060408051602080820183528482526000848152600b8252929092208151805192938493610dd39284920190611dc8565b5090505061091033836114cf565b610de9611220565b6001600160a01b0316826001600160a01b03161415610e4f576040805162461bcd60e51b815260206004820152601960248201527f4552433732313a20617070726f766520746f2063616c6c657200000000000000604482015290519081900360640190fd5b8060056000610e5c611220565b6001600160a01b03908116825260208083019390935260409182016000908120918716808252919093529120805460ff191692151592909217909155610ea0611220565b6001600160a01b03167f17307eab39ab6107e8899845ad3d59bd9653f200f220920489ca2b5937696c318360405180821515815260200191505060405180910390a35050565b610ef7610ef1611220565b8361129d565b610f325760405162461bcd60e51b81526004018080602001828103825260318152602001806120796031913960400191505060405180910390fd5b610b76848484846115fd565b6060610f4982611213565b610f845760405162461bcd60e51b815260040180806020018281038252602f815260200180612029602f913960400191505060405180910390fd5b60008281526008602090815260409182902080548351601f60026000196101006001861615020190931692909204918201849004840281018401909452808452606093928301828280156110195780601f10610fee57610100808354040283529160200191611019565b820191906000526020600020905b815481529060010190602001808311610ffc57829003601f168201915b50506009549394505050506002600019610100600184161502019091160461104257905061072b565b8051156111135760098160405160200180838054600181600116156101000203166002900480156110aa5780601f106110885761010080835404028352918201916110aa565b820191906000526020600020905b815481529060010190602001808311611096575b5050825160208401908083835b602083106110d65780518252601f1990920191602091820191016110b7565b6001836020036101000a0380198251168184511680821785525050505050509050019250505060405160208183030381529060405291505061072b565b600961111e8461164f565b604051602001808380546001816001161561010002031660029004801561117c5780601f1061115a57610100808354040283529182019161117c565b820191906000526020600020905b815481529060010190602001808311611168575b5050825160208401908083835b602083106111a85780518252601f199092019160209182019101611189565b6001836020036101000a03801982511681845116808217855250505050505090500192505050604051602081830303815290604052915050919050565b6001600160a01b03918216600090815260056020908152604080832093909416825291909152205460ff1690565b6000610ba160028361172a565b3390565b600081815260046020526040902080546001600160a01b0319166001600160a01b038416908117909155819061125982610c39565b6001600160a01b03167f8c5be1e5ebec7d5bd14f71427d1e84f3dd0314c0f7b2291e5b200ac8c7c3b92560405160405180910390a45050565b6000610ba182611736565b60006112a882611213565b6112e35760405162461bcd60e51b815260040180806020018281038252602c815260200180611efb602c913960400191505060405180910390fd5b60006112ee83610c39565b9050806001600160a01b0316846001600160a01b031614806113295750836001600160a01b031661131e846107d8565b6001600160a01b0316145b80611339575061133981856111e5565b949350505050565b826001600160a01b031661135482610c39565b6001600160a01b0316146113995760405162461bcd60e51b81526004018080602001828103825260298152602001806120006029913960400191505060405180910390fd5b6001600160a01b0382166113de5760405162461bcd60e51b8152600401808060200182810382526024815260200180611ed76024913960400191505060405180910390fd5b6113e9838383610910565b6113f4600082611224565b6001600160a01b0383166000908152600160205260409020611416908261173a565b506001600160a01b03821660009081526001602052604090206114399082611746565b5061144660028284611752565b5080826001600160a01b0316846001600160a01b03167fddf252ad1be2c89b69c2b068fc378daa952ba7f163c4a11628f55a4df523b3ef60405160405180910390a4505050565b90565b6000610b9e8383611768565b60008080806114ab86866117cc565b9097909650945050505050565b60006114c5848484611847565b90505b9392505050565b6001600160a01b03821661152a576040805162461bcd60e51b815260206004820181905260248201527f4552433732313a206d696e7420746f20746865207a65726f2061646472657373604482015290519081900360640190fd5b61153381611213565b15611585576040805162461bcd60e51b815260206004820152601c60248201527f4552433732313a20746f6b656e20616c7265616479206d696e74656400000000604482015290519081900360640190fd5b61159160008383610910565b6001600160a01b03821660009081526001602052604090206115b39082611746565b506115c060028284611752565b5060405181906001600160a01b038416906000907fddf252ad1be2c89b69c2b068fc378daa952ba7f163c4a11628f55a4df523b3ef908290a45050565b611608848484611341565b61161484848484611911565b610b765760405162461bcd60e51b8152600401808060200182810382526032815260200180611ea56032913960400191505060405180910390fd5b60608161167457506040805180820190915260018152600360fc1b602082015261072b565b8160005b811561168c57600101600a82049150611678565b60608167ffffffffffffffff811180156116a557600080fd5b506040519080825280601f01601f1916602001820160405280156116d0576020820181803683370190505b50859350905060001982015b831561172157600a840660300160f81b828280600190039350815181106116ff57fe5b60200101906001600160f81b031916908160001a905350600a840493506116dc565b50949350505050565b6000610b9e8383611a79565b5490565b6000610b9e8383611a91565b6000610b9e8383611b57565b60006114c584846001600160a01b038516611ba1565b815460009082106117aa5760405162461bcd60e51b8152600401808060200182810382526022815260200180611e836022913960400191505060405180910390fd5b8260000182815481106117b957fe5b9060005260206000200154905092915050565b8154600090819083106118105760405162461bcd60e51b8152600401808060200182810382526022815260200180611fb26022913960400191505060405180910390fd5b600084600001848154811061182157fe5b906000526020600020906002020190508060000154816001015492509250509250929050565b600082815260018401602052604081205482816118e25760405162461bcd60e51b81526004018080602001828103825283818151815260200191508051906020019080838360005b838110156118a757818101518382015260200161188f565b50505050905090810190601f1680156118d45780820380516001836020036101000a031916815260200191505b509250505060405180910390fd5b508460000160018203815481106118f557fe5b9060005260206000209060020201600101549150509392505050565b6000611925846001600160a01b0316611c38565b61193157506001611339565b6060611a3f630a85bd0160e11b611946611220565b88878760405160240180856001600160a01b03168152602001846001600160a01b0316815260200183815260200180602001828103825283818151815260200191508051906020019080838360005b838110156119ad578181015183820152602001611995565b50505050905090810190601f1680156119da5780820380516001836020036101000a031916815260200191505b5095505050505050604051602081830303815290604052906001600160e01b0319166020820180516001600160e01b038381831617835250505050604051806060016040528060328152602001611ea5603291396001600160a01b0388169190611c3e565b90506000818060200190516020811015611a5857600080fd5b50516001600160e01b031916630a85bd0160e11b1492505050949350505050565b60009081526001919091016020526040902054151590565b60008181526001830160205260408120548015611b4d5783546000198083019190810190600090879083908110611ac457fe5b9060005260206000200154905080876000018481548110611ae157fe5b600091825260208083209091019290925582815260018981019092526040902090840190558654879080611b1157fe5b60019003818190600052602060002001600090559055866001016000878152602001908152602001600020600090556001945050505050610ba1565b6000915050610ba1565b6000611b638383611a79565b611b9957508154600181810184556000848152602080822090930184905584548482528286019093526040902091909155610ba1565b506000610ba1565b600082815260018401602052604081205480611c065750506040805180820182528381526020808201848152865460018181018955600089815284812095516002909302909501918255915190820155865486845281880190925292909120556114c8565b82856000016001830381548110611c1957fe5b90600052602060002090600202016001018190555060009150506114c8565b3b151590565b60606114c584846000856060611c5385611c38565b611ca4576040805162461bcd60e51b815260206004820152601d60248201527f416464726573733a2063616c6c20746f206e6f6e2d636f6e7472616374000000604482015290519081900360640190fd5b60006060866001600160a01b031685876040518082805190602001908083835b60208310611ce35780518252601f199092019160209182019101611cc4565b6001836020036101000a03801982511681845116808217855250505050505090500191505060006040518083038185875af1925050503d8060008114611d45576040519150601f19603f3d011682016040523d82523d6000602084013e611d4a565b606091505b50915091508115611d5e5791506113399050565b805115611d6e5780518082602001fd5b60405162461bcd60e51b81526020600482018181528651602484015286518793919283926044019190850190808383600083156118a757818101518382015260200161188f565b6040518060200160405280606081525090565b828054600181600116156101000203166002900490600052602060002090601f016020900481019282601f10611e0957805160ff1916838001178555611e36565b82800160010185558215611e36579182015b82811115611e36578251825591602001919060010190611e1b565b50611e42929150611e46565b5090565b5b80821115611e425760008155600101611e4756fe596f752063616e27742073616c6520746865205374617220796f7520646f6e2774206f776e6564456e756d657261626c655365743a20696e646578206f7574206f6620626f756e64734552433732313a207472616e7366657220746f206e6f6e20455243373231526563656976657220696d706c656d656e7465724552433732313a207472616e7366657220746f20746865207a65726f20616464726573734552433732313a206f70657261746f7220717565727920666f72206e6f6e6578697374656e7420746f6b656e4552433732313a20617070726f76652063616c6c6572206973206e6f74206f776e6572206e6f7220617070726f76656420666f7220616c6c4552433732313a2062616c616e636520717565727920666f7220746865207a65726f20616464726573734552433732313a206f776e657220717565727920666f72206e6f6e6578697374656e7420746f6b656e456e756d657261626c654d61703a20696e646578206f7574206f6620626f756e64734552433732313a20617070726f76656420717565727920666f72206e6f6e6578697374656e7420746f6b656e4552433732313a207472616e73666572206f6620746f6b656e2074686174206973206e6f74206f776e4552433732314d657461646174613a2055524920717565727920666f72206e6f6e6578697374656e7420746f6b656e4552433732313a20617070726f76616c20746f2063757272656e74206f776e65724552433732313a207472616e736665722063616c6c6572206973206e6f74206f776e6572206e6f7220617070726f766564a264697066735822122096a9afd337ddcf93745392becbeaac9eb67e40818e36ef459a2741b4d35856da64736f6c634300060c0033",
    "sourcePath": "f:/Luciano_particular/GITHUB/udacity-blockchaindev-nanodegree/project2_CryptoStar_Dapp_on_Ethereum/contracts/StarNotary.sol",
    "compiler": {
        "name": "solc",
        "version": "0.6.12+commit.27d51765"
    },
    "functionHashes": {
        "approve(address,uint256)": "095ea7b3",
        "balanceOf(address)": "70a08231",
        "baseURI()": "6c0360eb",
        "buyStar(uint256)": "2f1c34ef",
        "createStar(string,uint256)": "9697c0a1",
        "getApproved(uint256)": "081812fc",
        "isApprovedForAll(address,address)": "e985e9c5",
        "name()": "06fdde03",
        "owner()": "8da5cb5b",
        "ownerOf(uint256)": "6352211e",
        "putStarUpForSale(uint256,uint256)": "316a4361",
        "safeTransferFrom(address,address,uint256)": "42842e0e",
        "safeTransferFrom(address,address,uint256,bytes)": "b88d4fde",
        "setApprovalForAll(address,bool)": "a22cb465",
        "starsForSale(uint256)": "0564b130",
        "supportsInterface(bytes4)": "01ffc9a7",
        "symbol()": "95d89b41",
        "tokenByIndex(uint256)": "4f6ccce7",
        "tokenIdToStarInfo(uint256)": "1967fd98",
        "tokenOfOwnerByIndex(address,uint256)": "2f745c59",
        "tokenURI(uint256)": "c87b56dd",
        "totalSupply()": "18160ddd",
        "transferFrom(address,address,uint256)": "23b872dd"
    },
    "gasEstimates": {
        "creation": {
            "codeDepositCost": "1683000",
            "executionCost": "infinite",
            "totalCost": "infinite"
        },
        "external": {
            "approve(address,uint256)": "infinite",
            "balanceOf(address)": "infinite",
            "baseURI()": "infinite",
            "buyStar(uint256)": "infinite",
            "createStar(string,uint256)": "infinite",
            "getApproved(uint256)": "infinite",
            "isApprovedForAll(address,address)": "1394",
            "name()": "infinite",
            "owner()": "1170",
            "ownerOf(uint256)": "infinite",
            "putStarUpForSale(uint256,uint256)": "infinite",
            "safeTransferFrom(address,address,uint256)": "infinite",
            "safeTransferFrom(address,address,uint256,bytes)": "infinite",
            "setApprovalForAll(address,bool)": "infinite",
            "starsForSale(uint256)": "1152",
            "supportsInterface(bytes4)": "1196",
            "symbol()": "infinite",
            "tokenByIndex(uint256)": "infinite",
            "tokenIdToStarInfo(uint256)": "infinite",
            "tokenOfOwnerByIndex(address,uint256)": "infinite",
            "tokenURI(uint256)": "infinite",
            "totalSupply()": "1096",
            "transferFrom(address,address,uint256)": "infinite"
        },
        "internal": {
            "_make_payable(address)": "12"
        }
    }
}