{
  "contractName": "Message",
  "abi": [
    {
      "constant": false,
      "inputs": [
        {
          "internalType": "string",
          "name": "x",
          "type": "string"
        }
      ],
      "name": "setMessage",
      "outputs": [],
      "payable": false,
      "stateMutability": "nonpayable",
      "type": "function"
    },
    {
      "constant": false,
      "inputs": [],
      "name": "clearMessage",
      "outputs": [],
      "payable": false,
      "stateMutability": "nonpayable",
      "type": "function"
    },
    {
      "constant": true,
      "inputs": [],
      "name": "getMessage",
      "outputs": [
        {
          "internalType": "string",
          "name": "",
          "type": "string"
        }
      ],
      "payable": false,
      "stateMutability": "view",
      "type": "function"
    }
  ],
  "bytecode": "0x608060405234801561001057600080fd5b5061034c806100206000396000f3fe608060405234801561001057600080fd5b50600436106100415760003560e01c8063368b877214610046578063ac4664df14610101578063ce6d41de1461010b575b600080fd5b6100ff6004803603602081101561005c57600080fd5b810190808035906020019064010000000081111561007957600080fd5b82018360208201111561008b57600080fd5b803590602001918460018302840111640100000000831117156100ad57600080fd5b91908080601f016020809104026020016040519081016040528093929190818152602001838380828437600081840152601f19601f82011690508083019250505050505050919291929050505061018e565b005b6101096101a8565b005b6101136101d0565b6040518080602001828103825283818151815260200191508051906020019080838360005b83811015610153578082015181840152602081019050610138565b50505050905090810190601f1680156101805780820380516001836020036101000a031916815260200191505b509250505060405180910390f35b80600090805190602001906101a4929190610272565b5050565b60405180602001604052806000815250600090805190602001906101cd929190610272565b50565b606060008054600181600116156101000203166002900480601f0160208091040260200160405190810160405280929190818152602001828054600181600116156101000203166002900480156102685780601f1061023d57610100808354040283529160200191610268565b820191906000526020600020905b81548152906001019060200180831161024b57829003601f168201915b5050505050905090565b828054600181600116156101000203166002900490600052602060002090601f016020900481019282601f106102b357805160ff19168380011785556102e1565b828001600101855582156102e1579182015b828111156102e05782518255916020019190600101906102c5565b5b5090506102ee91906102f2565b5090565b61031491905b808211156103105760008160009055506001016102f8565b5090565b9056fea265627a7a723158203cf06efde71a37b9862f14234e7fd396e5a18ba48f560526299ecf1fae934a5064736f6c63430005100032",
  "source": "\r\npragma solidity ^0.5.16;\r\n\r\ncontract Message {\r\n    string myMessage;\r\n\r\n    function setMessage(string memory x) public {\r\n        myMessage = x;\r\n    }\r\n\r\n    function clearMessage() public {\r\n        myMessage = \"\";\r\n    }\r\n\r\n\r\n    function getMessage() public view returns (string memory) {\r\n        return myMessage;\r\n    }\r\n}",
  "sourcePath": "F:/Luciano_particular/GITHUB/udacity-blockchaindev-nanodegree/lessons/p3l1_18/contracts/mtest.sol",
  "compiler": {
    "name": "solc",
    "version": "0.5.16+commit.9c3226ce.Emscripten.clang"
  },
  "schemaVersion": "3.2.3",
  "updatedAt": "2020-08-24T22:44:33.989Z",
  "networkType": "ethereum",
  "devdoc": {
    "methods": {}
  },
  "userdoc": {
    "methods": {}
  }
}